:020000040800F2
:1000000010070020350200082D24000801210008F7
:1000100029240008371D0008412A000800000000BC
:100020000000000000000000000000000D26000895
:10003000051F000800000000B52400082127000863
:100040004F0200084F0200084F0200084F0200084C
:100050004F0200084F0200084F0200084F0200083C
:100060004F0200084F0200084F0200084F0200082C
:100070004F0200084F0200084F0200084F0200081C
:100080004F0200084F0200084F0200084F0200080C
:100090004F0200084F0200084F0200084F020008FC
:1000A0004F0200084F0200084F0200084F020008EC
:1000B0004F0200084F0200084F0200084F020008DC
:1000C0004F0200084F0200084F0200084F020008CC
:1000D0004F020008852700084F0200084F02000861
:1000E0004F0200084F0200084F02000800F002F81B
:1000F00000F090F80AA090E8000C82448344AAF132
:100100000107DA4501D100F085F8AFF2090EBAE82F
:100110000F0013F0010F18BFFB1A43F0010318473B
:10012000CC330000EC330000103A24BF78C878C10B
:10013000FAD8520724BF30C830C144BF04680C60ED
:10014000704700000023002400250026103A28BF35
:1001500078C1FBD8520728BF30C148BF0B60704739
:100160006E2900F09F81702900F0E182662903F07A
:100170000D81652903F00A81672903F00781612950
:1001800003F0068103681B0A28BF41F0800169293A
:1001900000F04C81642900F04981752900F0468106
:1001A0006F2900F06E82782900F0AD82E92900F015
:1001B0000982E42900F00682F52900F00382EF2984
:1001C00000F06B82F82900F0AC820368DB0928BFDD
:1001D00041F08001632901F01B80732901F0208028
:1001E000E32901F02B80F32901F0308000207047D3
:1001F0001FB501F0C3F804000020002103F09AF8B5
:10020000401C60600020002103F0AAF8E0601FBDE0
:1002100010B510BD01F08DF81146FFF7E9FF02F0AF
:100220006FFE01F06FF903B4FFF7F2FF03BC01F0BA
:10023000B3F900000948804709480047FEE7FEE798
:10024000FEE7FEE7FEE7FEE7FEE7FEE7FEE7FEE786
:1002500004480549054A064B704700002527000859
:10026000ED000008100100201007002010030020FE
:10027000100300201CB50C46064B7B4469460090D9
:10028000204600F028F904460020694600F036F9BF
:1002900020461CBD7F02000070B5064600F060F8E5
:1002A0000468054630460A22002100F00FFB2C604E
:1002B00070BD30B505460B462A4613F8014B12F8BF
:1002C000010B08B1A042F8D01CB1002802D06D1C6F
:1002D000F1E7284630BD10B5431C02E010F8011BC1
:1002E00071B18107FAD14FF0013202C88C1A8C43E8
:1002F00014EAC211F9D0C01A0A0603D0C01E10BDFC
:10030000C01A10BD0A0401D0801E10BD0902FCD025
:10031000401E10BD4FF000020429C0F0128010F002
:10032000030C00F00D83CCF1040CBCF1020F18BFDC
:1003300000F8012BA8BF20F8022BA1EB0C0100F064
:10034000FFBA5FEAC17C24BF00F8012B00F8012B43
:1003500048BF00F8012B7047704770477047000096
:1003600000487047B000002070B5044685690068F9
:10037000C10601D5302600E02026C00707D070BD99
:10038000D4E9012130469047206A401C20626D1E4E
:10039000F6D570BD70B5044685690078C00707D1F1
:1003A00070BDD4E9012120209047206A401C2062C2
:1003B0006D1EF6D570BD09684A0501D540B270477B
:1003C000C905FCD500B2704709684A0501D5C0B21D
:1003D0007047C905FCD580B2704770B50C4605461C
:1003E000012A05D02878800600D5EA69002302E0BA
:1003F000012305E05B1C934202D2E05C0028F9D1A6
:10040000A869E618C01AA861286A18442862284614
:10041000FFF7AAFF04E0D5E9012114F8010B90478A
:10042000B442F8D32846FFF7B5FF70BD2DE9F0417F
:100430000646002410687529314616A510D0FFF72E
:10044000BAFF002802DA404213A507E031688A07A4
:1004500001D512A502E0490704D511A5012401E048
:10046000FFF7B2FF00210A2206F1240709E0B0FBE2
:10047000F2FCB0FBF2F302FB1C003030785418465B
:10048000491C0028F3D123462A463046BDE8F041F6
:1004900000F0CDBA000000002D0000002B0000008D
:1004A0002000000011680268006A530501D5087039
:1004B0000AE0D30501D5088006E0130603D5C2176C
:1004C000C1E9000200E008600120704701694A1C90
:1004D00002610878704700B58FB0CDE90131002185
:1004E000059105497944CDE903101146684600F0AD
:1004F00029F90FB000BD0000E5FFFFFF0A6802F810
:10050000010B0A60704700002DE9FF5F15468A461F
:100510000446DFF8AC80F8440027D8E900103E46D6
:10052000CDE9001010E03AF816106A4602A800F073
:10053000E0FE411C07D02178890603D5E26939180D
:1005400091420DD80744761C2078800602D5E069D8
:10055000B84205DDAE42E6DB3AF816000028E2D1EB
:10056000A069C01BA0612046FFF7FEFED8E900107D
:10057000CDE90010002017E03AF818106A4602A8EA
:1005800000F0B7FEB0F1FF3F81460BD000250DF122
:10059000080B05E0D4E901211BF8050090476D1C0C
:1005A0004D45F7D308F10100B0428046E4DB206AF4
:1005B000384420622046FFF7EDFEBDE8FF9F0000B3
:1005C000D62E00002DE9F0418046D21D22F0070210
:1005D0000025D2E90002F52915A614D0011E72F1FA
:1005E000000106DA0023D0EB030063EB020211A640
:1005F00008E0D8F800108B0701D50FA602E04907E4
:1006000001D50EA601251146002408F1240704E0B7
:1006100000F0C8F930323A55641C50EA0102F7D1B3
:100620002B46324621464046BDE8F04100F0FFB976
:10063000000000002D0000002B0000002000000042
:1006400030B4002100F1240408E002F00705D208CC
:10065000303542EA4372DB086554491C52EA03050F
:10066000F3D10468002310A2250707D5A40600D4FF
:1006700021B1C46901230DA2641EC46130BC00F025
:10068000D6B910B5044621461068FFF79DFE024614
:100690002046BDE810400023D2E7D21D22F007011A
:1006A000D1E90023CCE7000000000000300000008A
:1006B000F0B40D460188090502D5214C7C4402E0C6
:1006C0001F4C7C440E34002100F1240608E002F0A7
:1006D0000F071209E75D42EA03721B097754491CB0
:1006E00052EA0307F3D102780023120704D5702DD4
:1006F00006D009B1022311342246F0BC00F097B9AC
:1007000001231034F8E770B504460D462146106801
:10071000FFF75AFE024629462046BDE870400023F6
:10072000C6E7D21D22F00703D3E90023C0E7036820
:10073000126843F0200303600823C3610023B7E776
:10074000382D00002DE9F05F894604464FF0000A7D
:10075000DFF874B1FB44C0F820A02046E168884768
:10076000002874D0252806D0D4E901219047206ABA
:10077000401C2062F1E700265F462046E16888477A
:100780002028054607DB312D05D2781910F8200CFA
:1007900008B10643F1E7B00701D526F00406C4F816
:1007A0001CA00027C4F818A02A2D09D0284602F062
:1007B0005DF938B304EB8708303DC8F8185019E0EC
:1007C00059F8041B204604EB87029161E1688847D1
:1007D000012F054618D1E069002820DA26F020060E
:1007E0001DE0D8F8180000EB800005EB4000303821
:1007F000C8F818002046E1688847054602F036F937
:100800000028EED1012F0AD02E2D08D12046E16814
:1008100088477F1C0546022F46F02006C4DBA069EE
:10082000002803DA404246F00106A061F00701D03B
:1008300026F010066C2D0BD0682D09D04C2D39D028
:100840006A2D35D0742D35D07A2D33D016E038E0AE
:10085000E1682F4620468847B842054609D16C2FEB
:1008600026D04FF48060E16806432046884705465D
:1008700004E06C2F1AD04FF4807006430DB3A5F13D
:100880004100192802D8203546F400664A46294618
:10089000204626604E46FFF763FC80B101280BD04E
:1008A000F61D26F0070000F1080956E74020E4E7AE
:1008B0008020D8E70020D6E706F104094DE7284656
:1008C00052E7206ABDE8F09FC82C00002DE9F047F0
:1008D00091460F4680460446002614F8015B2DB170
:1008E00000F058F80068405DC007F6D12B2D02D00B
:1008F0002D2D18D0641E4A463946204600F0AAFC29
:1009000027B13968A14201D1C7F800804FF0020435
:1009100071050BD54042002803DDFFF721FD04607F
:10092000A007BDE8F08746F48066E4E70028F8DA1F
:10093000FFF716FD04606FF00040F2E74FF0000291
:1009400000B5134694469646203922BFA0E80C50C5
:10095000A0E80C50B1F12001BFF4F7AF090728BFA0
:10096000A0E80C5048BF0CC05DF804EB890028BF1C
:1009700040F8042B08BF704748BF20F8022B11F045
:10098000804F18BF00F8012B7047000000487047E7
:10099000B000002010B500F0F1FC001D10BD00BF3C
:1009A0009529000030B5B0F10A024FEA900E71F1BE
:1009B00000034EEA817EB0EB0E0061EB91014FEA3D
:1009C000101E4EEA017E10EB0E0041EB11114FEAB2
:1009D000102E4EEA016E10EB0E0041EB11214FEA92
:1009E000104E4EEA014E10EB0E0041EB1141401843
:1009F00041F100014FEAD00040EA41704FEAD101D5
:100A000010EB80054FEA810444EA907444EB010442
:100A10006D1944EB0404521BA3414FF0000348BF7F
:100A20000A3200D530BD401C41F1000130BD2DE936
:100A3000F0470D4699469246044600F124080168A5
:100A4000880604D5E06921F01001216000E0012052
:100A5000A84201DD471B00E00027A1697A1902EBDB
:100A60000900081AA0612078C00602D42046FFF7CA
:100A70007BFC002608E0D4E901211AF80600904723
:100A8000206A401C761C20624E45F4DB2078C006AC
:100A90000AD52046FFF768FC06E0D4E901213020A2
:100AA0009047206A401C2062381EA7F10107F4DC41
:100AB00007E0D4E9012118F805009047206A401C9E
:100AC0002062281EA5F10105F3DC2046FFF762FC39
:100AD0002078000602D50220BDE8F0870120FBE760
:100AE00070472DE9FF4F0C461E464FF0FF378BB085
:100AF000D2E90001DDF860800A908A46C1F30A5508
:100B000005B93D46002108464FF00000BAF1000F3C
:100B100000F4400005DA00EB80004FF4400101EAE8
:100B200050004FEA9059B9F1010F00DDB9460A981B
:100B300050EA4A000ED044F61050A5F2FF35454366
:100B40002F14B8F1000F1ED07542291E1EDDC9F109
:100B500000021CE0B8F1010F4FF0000001D030217D
:100B600003E0F24305E02154401CB042FBDB304679
:100B70000022002121540B99C1F80880C1E900200E
:100B80000FB0BDE8F08FBD1B6D1CDEE74A4600DAF2
:100B9000694206A800F044FC06AB93E8070003ABEB
:100BA00083E8070050460A9900F0FDFC8DE8070035
:100BB000A0F500501F3800900398002D0ADD42F286
:100BC0001F014A460844002303A90390684600F029
:100BD00066FF09E0A0F500504A461F38002303A92C
:100BE0000390684600F070FF8DE807000004000CD9
:100BF00003D04FF0FF30410800E01046B8F1000F7D
:100C000003D00022009215461EE0751E05D4FFF7A2
:100C1000C9FE303262556D1EF9D5B3460122084334
:100C200002D000227F1C04E02078302801D100226D
:100C30007F1E002A099784D01DE0112D07DAFFF7E7
:100C4000B1FE303262556D1C50EA0102F5D1084305
:100C500002D00098C8B10EE00021681E05E0235CB8
:100C6000625C63542254401E491C8142F7DBAB4650
:100C7000A81B401E0990002004F80B000B98099A4D
:100C8000C0F80880C0E9002B7AE711264FF0000871
:100C900057E72DE9F04F88460446D21D22F00701A0
:100CA00091B0D1E90001CDE90A0101F0CBFE024685
:100CB0000B98C00F01D02D2007E02068810701D5D7
:100CC0002B2002E0202101EAC000032A099001D074
:100CD000072A05DB03464146204600F053FB0BE1A3
:100CE0002078800601D5E06900E00620B8F1650FA4
:100CF000814606D0B8F1660F18D0B8F1670F70D1F1
:100D000031E00020B9F1110F009001DB112301E067
:100D100009F101030AAA01A90CA8FFF7E2FEDDE927
:100D20000C70002609F10105834647E001204B467F
:100D300000904FF000470AAA01A90CA8FFF7D1FEC6
:100D4000DDE90DB00C995D46002610B909F10100EE
:100D50000D18B9EB050003D4C0F1FF3609F1010508
:100D6000A5EB09002BE0B9F1010F01DA4FF0010901
:100D70000020B9F1110F0090484601DD112300E079
:100D800003460AAA01A90CA8FFF7ABFEDDE90C7027
:100D90004D4600268346207800070AD4AB4500DA8A
:100DA0005D4601A8012D04DD411911F8011C30290F
:100DB00007D04F4502DA17F1040F04DA012082460A
:100DC0000FE06D1EEEE7002F02DCED1B3E4403E05A
:100DD000781CA84200DD7D1CB81B00F1010A4FF011
:100DE00000472078000703D4AA4501DB4FF0FF3A03
:100DF0000021B7F1004F0DF143088DF8431024D0C6
:100E000002202B23002F01DA7F422D230A21021E0C
:100E1000A0F1010000DC5FB197FBF1FC97FBF1F260
:100E200001FB1C7C17460CF1300C08F801CDEEE7F5
:100E3000A8F1010003702188090501D5452100E0D2
:100E40006521A0F1010800F8011C09980FA9A1EB88
:100E50000807FF1D00B10120411901EBEA70A169EB
:100E60003844081A401EA0612078C00602D42046EB
:100E7000FFF77AFA099828B1D4E901219047206A4E
:100E8000401C20622078C00622D52046FFF76CFA6D
:100E90001EE0002E04DBB34502DD01A8805D00E00A
:100EA0003020D4E901219047206A401C2062761C42
:100EB000AAF101005FEA000A0AD100F05FFAC068F7
:100EC0000168405CD4E901219047206A401C2062FF
:100ED000281EA5F10105DCDC07E0D4E9012118F8A2
:100EE000010B9047206A401C2062381EA7F10107C1
:100EF000F3DC2046FFF74EFA032011B041E6000074
:100F00002DE9F04F04460D46D21D22F0070089B0AE
:100F1000D0E900974846394601F094FD0246F80FA3
:100F200001D02D2307E02068810701D52B2302E0A3
:100F3000202101EAC0038DF820300BB1012000E030
:100F40000020032A824601D0072A04DB29462046D6
:100F500000F018FA3FE12078800601D40D2500E06A
:100F6000E569C7F30A560D2D49DA00214FEA175BF0
:100F700008464FF00000002F00F4400007DA00EBB5
:100F800080004FF4400100EBD07001EA6000811551
:100F9000012901DD4FF0FF3100224FEA850CBCF141
:100FA000180F06D31346ACF118004FF08052C24020
:100FB00003E04FF4801323FA0CF30CF10C0CBCF19A
:100FC000200F04D3ACF1200C09FA0CF001E007FA71
:100FD0000CF000294FF0004801DD18B90FE00ED1E8
:100FE00040450CD319EB02095F4121B9404502D1BC
:100FF0009F4329EA0209BBEB175F00D0761C2088CB
:10100000000502D57B48784402E07A4878441938D4
:1010100008AA302302F80A30037C0AF10101002EED
:101020000AF1020A53546A4602DC4FF0300101E033
:101030004FF031014FF001088DF8001002D0A6F2F8
:10104000FF3603E059EA470100D06B4E002D02DC69
:101050002178090704D54FF002082E218DF80110E0
:10106000C44600210BE0C7F303433F01C35C491CA6
:101070006D1E02F80830052908F1010801DA002D7B
:10108000F1DC00210CE000EB1973491C1B786D1E8C
:10109000082902F808304FEA091908F1010801DAB5
:1010A000002DF0DC21688B0602D516E0A8F10108BE
:1010B000E04505DD02EB080313F8013C302BF5D0C9
:1010C000B8F1000F09DD02EB080313F8013C2E2BE9
:1010D00003D1090701D4A8F10108002D05DD3E2147
:1010E00002F808106D1E08F10108407C002E02F87D
:1010F000080008F1010804DA2D20764202F8080001
:1011000002E02B2002F808000A214FF47A70864290
:1011100008F101080BDB96FBF0F3303302F80830DE
:1011200096FBF0F308F1010800FB136601E0642E62
:101130000CDB642096FBF0F3303302F8083096FBAA
:10114000F0F308F1010800FB136601E00A2E06DB4C
:1011500096FBF1F0303002F8080008F1010896FB28
:10116000F1F001FB1060303002F80800A16908F1CD
:10117000010808EB050202EB0A00081AA0612078BA
:10118000C00602D42046FFF7EFF8216A08AE01EB53
:101190000A00206204E0D4E9012116F8010B90470F
:1011A000BAF1010AF7D22078C00602D52046FFF72F
:1011B000DBF86E4609E016F8010B3E280FD0D4E9A3
:1011C00001219047206A401C2062B8F10108F2D248
:1011D0002046FFF7DFF809B00320BDE8F08F206A52
:1011E0002844206203E0D4E90121302090476D1E9D
:1011F000EBD3F8E73A24000002FCFFFF10B5436987
:1012000013B1AFF3008001E0FFF7E7F8012010BD54
:10121000127800F124010A7000224A700122EDE7E1
:1012200011684FF0FF32E9E710B5436913B1AFF32E
:10123000008001E0FFF768F9012010BD128800F17D
:10124000240182840022C2840122EDE711684FF05C
:10125000FF32E9E72DE9F05F824615468B4600270D
:101260000AF10104B9460078302801D09DB113E09D
:1012700014F8010B0127782803D0582801D045B174
:101280000AE00DB1102D07D1002714F8010B10252D
:1012900002E0082500E00A250026B0460EE005FB26
:1012A000080005FB06F101271FFA80F801EB104644
:1012B000B6F5803F00D3B94614F8010B294600F07B
:1012C000A1F80028EBDABBF1000F05D00FB1641EC6
:1012D00000E05446CBF80040B9F1000F06D0FFF70C
:1012E0003FF802210160C81EBDE8F09F48EA0640B1
:1012F000FAE770B516460C460546FFF74BFB036848
:1013000093F80101012806D0FF2C0FD8185D68B1B1
:1013100001202C7070BDD3F807013246214603F23C
:10132000071303442846BDE8704018474FF0FF30CC
:1013300070BD7546FFF72AFBAE4605006946534669
:1013400020F00700854618B020B5FEF781FFBDE804
:1013500020404FF000064FF000074FF000084FF01C
:10136000000B21F00701AC46ACE8C009ACE8C009AD
:10137000ACE8C009ACE8C0098D467047004870472A
:10138000D00000202DE9F0411F46044603260168E5
:10139000072A01F4006004DB08B116A505E016A5D4
:1013A00003E008B115A500E015A521F010002060AC
:1013B000A069C01EA0610FB1401EA0612046FEF7CB
:1013C000D3FF4FB1D4E9012138469047206A401C31
:1013D0002062C01C206206E0206AFAE7D4E90121FD
:1013E00015F8010B9047761EF8D22046FEF7D2FF83
:1013F000BDE8F0814E414E006E616E00494E4600E0
:10140000696E66003A2800D2303820F02002412A66
:1014100001D3A2F13700884201D34FF0FF3070476B
:101420002DE9F047814616468AB0354878440DC804
:101430008DE80D0032487844801C03AC0DC884E868
:101440000D0041F69B300844372190FBF1F290FBF0
:10145000F1F5A5F1800501FB12041B3C02D56442A5
:10146000012000E00020DFF898A080460027FA4421
:10147000AAF1BE0A0EE0E0070AD03246684607EB42
:10148000470101230AEB810100F01EFB8DE80700F4
:1014900064107F1C002CEED1194F7F44AE3F19E041
:1014A000E80715D007EB04100DF1180A90E80E00BC
:1014B0008AE80E00C068F04201D1981908903246BF
:1014C000012306A903A800F0FFFA03AB83E8070095
:1014D0006D10641C002DE3D14FF0010332466946C4
:1014E000B8F1000F03A802D000F0D9FA01E000F033
:1014F000EBFAC9E90001C9F808200AB0BDE8F08795
:10150000A420000010B50446AFF300802046BDE8DB
:101510001040FEF788BE00004FF0013C50F8042B4D
:1015200051F8043B9A4221D1A2EB0C03934313EAF6
:10153000CC1317D150F8042B51F8043B9A4215D123
:10154000A2EB0C03934313EACC130BD150F8042BFA
:1015500051F8043B9A4209D1A2EB0C03934313EADE
:10156000CC13DBD04FF00000704700BFD01A01BA97
:10157000B1FA81F101F0180122FA01F0CB40C1F17A
:101580002001DBB2C0B2C01A2CFA01F3D11A914388
:1015900011EAC311E6D1704701491820ABBEFEE73E
:1015A0002600020070475FEA400C08BF91F0000F70
:1015B0004FEA8C234FEAC12243EA51514FEA1C50B3
:1015C00018BF00F5F0404FEA300018BF41F000416D
:1015D0005FEA6C5C00F02980BCF1FF3F08BF40F07F
:1015E00080407047130C06BF12044FF0100C4FF0F0
:1015F000000C130E04BF12020CF1080C130F04BFF1
:1016000012010CF1040C930F04BF92000CF1020CB8
:10161000D30F04BF52000CF1010C11464FF0000231
:10162000A0F11F00A0EB0C00704711F0004F08BFA5
:10163000704731F000413FF4D5AF0B0C06BF0904F1
:101640004FF0100C4FF0000C0B0E04BF09020CF110
:10165000080C0B0F04BF09010CF1040C8B0F04BF25
:1016600089000CF1020CCB0F04BF49000CF1010CF6
:10167000CCF12003A0EB0C0022FA03F302FA0CF2E7
:1016800041EA030100F10100704720F07F4C80EA3D
:10169000030023F07F47ACEB070303F57C5300F016
:1016A000004003F1FF032DE980494FEA154B09B4CF
:1016B0004FEA144325EA0B4E24EA03480FF20426AE
:1016C00006EB132749083E785FEA320203FB066700
:1016D000C7F5000707FB06F64FEA54374FEAD64630
:1016E00006F1020607FB066CCCF1005C4FEA1C47D2
:1016F0002CEA074C07FB06F40CFB06F504EB154639
:101700004FEA961634BF00204FF000404FEAD13721
:1017100006FB07FC4FEA1C4C0CFB0BF7D21B03FB30
:101720000CF761EB07010CFB0EF7B0EB074072EB17
:1017300017420CFB08F734BFA2EB0742B2EB07429B
:1017400061EB17414FEA0C444FEA910706FB07FC97
:101750004FEA1C4C0CFB0BF7B0EBC74072EB573257
:1017600003FB0CF734BFA2EBC742B2EBC74261EBFD
:1017700057310CFB0EF7B0EBC70072EB57720CFB46
:1017800008F734BFA2EBC702B2EBC70261EB577197
:10179000039F4FEA816141EA921104EBCC044FEAC6
:1017A000D1374FEA826206FB07FC42EA90124FEA09
:1017B00080604FEA1C4C0CFB0BF7D21B03FB0CF7B1
:1017C00061EB07010CFB0EF7B0EB074072EB174221
:1017D0000CFB08F734BFA2EB0742B2EB074261EB08
:1017E00017414FEA8C554FEA910704EB9C2406FB06
:1017F00007FC4FEA1C4C0CFB0BF7B0EBC74072EB3D
:10180000573203FB0CF734BFA2EBC742B2EBC7421F
:1018100061EB57310CFB0EF7B0EBC70072EB577260
:101820000CFB08F734BFA2EBC702B2EBC70261EBB7
:10183000577115EB4C254FEA816141EA92114FEA4D
:1018400082624FEAD13742EA901206FB07FC44F16C
:1018500000044FEA80604FEA1C4C0CFB0BF7D21BD4
:1018600003FB0CF761EB07010CFB0EF7B0EB074035
:1018700072EB17420CFB08F734BFA2EB0742B2EB46
:10188000074261EB174115EB1C154FEA813141EA24
:1018900092414FEA823242EA90424FEA80304FEA68
:1018A0000C7644F1000448EA03434EEA0B484FF03B
:1018B000000EB2EB080C71EB030724BF62463946F9
:1018C0004EEB0E0E4FF0000B0018524149414BEB0E
:1018D0000B0BB2EB080C71EB03077BF1000B24BF81
:1018E000624639464EEB0E0E4FF0000B0018524187
:1018F00049414BEB0B0BB2EB080C71EB03077BF18F
:10190000000B24BF624639464EEB0E0E51EA020729
:1019100018BF46F0010616EB0E7655F1000254F1A1
:10192000000103D5BDE88901BDE80088BDE8890153
:10193000BDE80048B619524141EB0101A3F1010392
:10194000704780807F7E7D7C7B7A7978777676752C
:101950007473727171706F6E6E6D6C6C6B6A6A69A4
:101960006868676666656464636362616160605F3E
:101970005F5E5E5D5D5C5C5B5B5A5A5959585857B7
:10198000575656555555545453535252525151501F
:1019900050504F4F4F4E4E4D4D4D4C4C4C4B4B4B72
:1019A0004A4A4A49494948484847474747464646B8
:1019B00045454544444444434343434242424241F3
:1019C0004141002B9C4630D477002BD01CB54FEA08
:1019D000370703B44FF010004FF01001BAF1000FB9
:1019E00006D0BCF1000FDCBF40F0080040F0080159
:1019F0004FF000000FBCBDE810400BF1010BBBF134
:101A0000010F08BF5FEA170722BF12F1010211F1AF
:101A100001014FF0004143F1000300F0004043EAB0
:101A200000007047F9D35708D0E746EA064613F19D
:101A3000400F4FEA16461FDD13F1200FDFBF16439C
:101A40000A46002120335B42BED0C3F1200746EA9C
:101A5000064602FA07F74FEA164646EA0706C3F1BA
:101A6000200722FA03F201FA07F721FA03F14FF0F7
:101A7000000342EA0702A7E746EA020646EA0646EC
:101A80004FEA164646EA0106BCBF46EA0646360C51
:101A90004FF000034FF000024FF0000194E72DE9F2
:101AA000804C9A46934670B491E8380007C831EAF2
:101AB000400C48BF34EA430C03D5FFF7E6FDFFF7BF
:101AC00080FFF0BCBDE8008C2DE9804C9A4693461F
:101AD00070B491E8380007C810F0804F08BF13F0C9
:101AE000804F03D100F005F8FFF76BFFF0BCBDE8B5
:101AF000008C20F07F4780EA030023F07F4C07EB47
:101B00000C03A3F57C5300F00040A3F1FE0392F018
:101B1000000F00F0B38095F0000F00F077802DE902
:101B200001494FEA11404FEA144621EA004800FB00
:101B300006FC24EA064708FB06F607FB08F800FB4C
:101B400007F718EB06484CEB164C4FEA124B18EB14
:101B500007484FEA15464CEB174022EA0B4E0BFBA9
:101B600006FC25EA06470EFB06F607FB0EFE0BFBFE
:101B700007F71EEB064E4CEB164C4FF000061EEB23
:101B8000074E4CEB174B18EB0B0840F1000018EB1D
:101B90000E0B58EB000840F100008F1A4FF00001C7
:101BA0003CBFC943661B14BFB5EB040C00213CBF0E
:101BB000C943F61B4FEA17444EEA8E0E27EA044546
:101BC0004FEA1C4704FB07622CEA074C05FB07F7AA
:101BD0000CFB05F604FB0CFC16EB074642EB174228
:101BE00016EB0C4642EB1C421BEB060658EB0202BE
:101BF000414146EA9E0601D5BDE80189B619524128
:101C000041EB0101A3F10103BDE801894FEA14454D
:101C10004FEA114724EA054621EA074C05FB07F481
:101C200006FB07F70CFB06F105FB0CFC11EB07416B
:101C300044EB17444FEA124711EB0C4144EB1C44B0
:101C400022EA074C05FB07F206FB07F70CFB06F63A
:101C500005FB0CFC16EB074642EB174216EB0C4655
:101C600042EB1C456A1854F1000148BF7047B61991
:101C7000524141EB0101A3F10103704795F0000FC0
:101C800037D04FEA11424FEA144721EA024624EACC
:101C9000074C02FB07F106FB07F70CFB06F402FBFF
:101CA0000CFC14EB074441EB17414FEA154714EBCA
:101CB0000C4441EB1C4125EA074C02FB07F506FBEF
:101CC00007F70CFB06F602FB0CFC16EB074645EB90
:101CD000174516EB0C4645EB1C42121951F1000159
:101CE00048BF7047B619524141EB0101A3F101030E
:101CF00070474FEA14454FEA114724EA054621EAA6
:101D0000074C05FB07F106FB07F70CFB06F24FF04B
:101D1000000605FB0CFC12EB074241EB174112EBEE
:101D20000C4251EB1C4148BF7047921841EB010136
:101D3000A3F10103704700BFFEE7000000F08051EF
:101D400011B10349086001E0024948607047000092
:101D5000040402400000024021B1026842F0010286
:101D6000026004E002684FF6FE731A40026070479A
:101D700001684FF6FE721140016000210160416070
:101D80008160C1604B49884208D14A490839496895
:101D900041F00F01474A083A51608AE04549143141
:101DA000884208D143490839496841F0F001414A65
:101DB000083A51607DE03F492831884208D13D49C9
:101DC0000839496841F470613A4A083A516070E054
:101DD00038493C31884208D136490839496841F4CC
:101DE0007041344A083A516063E0324950318842C8
:101DF00008D130490839496841F470212D4A083A20
:101E0000516056E02B496431884208D1294908398C
:101E1000496841F47001274A083A516049E0254970
:101E20007831884208D123490839496841F0706106
:101E3000204A083A51603CE01F49884206D1011F00
:101E4000096841F00F01021F116032E01A49143194
:101E5000884208D11849091F096841F0F001164A63
:101E6000121F116025E014492831884208D1124917
:101E7000091F096841F470610F4A121F116018E0D0
:101E80000D493C31884208D10B49091F096841F4CA
:101E90007041094A121F11600BE007495031884216
:101EA00007D10549091F096841F47021024A121F30
:101EB000116070470800024008040240014648686B
:101EC00080B2704710B50022026847F6F0739A435B
:101ED0000C6A8B6823430C6923434C6923438C6948
:101EE0002343CC6923434C6A23438C6A23431A431C
:101EF0000260CB6843600B6883604B68C36010BDB1
:101F0000416070477047000010B50446294884427C
:101F100008D10121042000F0FFFA0021042000F084
:101F2000FBFA46E02448844208D10121082000F051
:101F3000F3FA0021082000F0EFFA3AE01F4884424B
:101F400008D10121102000F0E7FA0021102000F054
:101F5000E3FA2EE01A48844208D10121202000F043
:101F6000DBFA0021202000F0D7FA22E01548844255
:101F700008D10121402000F0CFFA0021402000F0DC
:101F8000CBFA16E01048844208D10121802000F0ED
:101F9000C3FA0021802000F0BFFA0AE00B48844217
:101FA00007D10121801500F0B7FA0021A01500F03B
:101FB000B3FA10BD00080140000C014000100140C0
:101FC0000014014000180140001C014000200140A5
:101FD0002DE9F041024600250026002000230024C0
:101FE000002791F803C00CF00F0591F803C00CF026
:101FF000100CBCF1000F03D091F802C04CEA0505AB
:1020000091F800C0BCF1000F31D0146800202BE023
:102010004FF0010C0CFA00F3B1F800C00CEA030613
:102020009E4220D183004FF00F0C0CFA03F7BC4303
:1020300005FA03FC4CEA040491F803C0BCF1280F34
:1020400006D14FF0010C0CFA00FCC2F814C00AE0F3
:1020500091F803C0BCF1480F05D14FF0010C0CFA08
:1020600000FCC2F810C0401C0828D1D31460B1F89D
:1020700000C0BCF1FF0F34DD546800202EE000F1F9
:10208000080C4FF0010808FA0CF3B1F800C00CEA94
:1020900003069E4221D183004FF00F0C0CFA03F788
:1020A000BC4305FA03FC4CEA040491F803C0BCF1FC
:1020B000280F05D100F1080C08FA0CF8C2F81480BA
:1020C00091F803C0BCF1480F07D100F1080C4FF0A4
:1020D000010808FA0CF8C2F81080401C0828CED37A
:1020E0005460BDE8F0810246002093680B400BB1BC
:1020F000012000E000207047416170470161704796
:1021000000BFFEE710B54FF480710D48FFF7F4FFF4
:1021100000F018F94FF400710948FFF7EDFF00F0E7
:1021200011F94FF480710648FFF7E8FF00F00AF953
:102130004FF480710248FFF7DFFF00F003F910BD94
:10214000000C014010B54FF480710D48FFF7D4FF2B
:1021500000F0F8F84FF400710948FFF7CFFF00F0E6
:10216000F1F84FF480710648FFF7C8FF00F0EAF875
:102170004FF480710248FFF7BFFF00F0E3F810BD95
:10218000000C014070B508250024A9011348FFF791
:10219000B5FF17E06006040E4FF480710F48FFF79B
:1021A000ABFF00F0CFF84FF480710C48FFF7A6FFAB
:1021B00000F0C8F84FF400710848FFF794FF08B129
:1021C00044F00104281EA5F10101CDB2E2D14FF483
:1021D00080710248FFF790FF204670BD000C01405F
:1021E00070B5044608251FE04FF480711448FFF7CE
:1021F00083FF00F0A7F804F0800028B14FF40071CD
:102200000F48FFF77BFF04E04FF400710C48FFF725
:1022100073FF6006040E00F095F84FF480710848D3
:10222000FFF76CFF00F08EF8281EA5F10101CDB27A
:10223000DAD14FF480710248FFF75EFF70BD0000F5
:10224000000C014010B54FF400711548FFF756FF20
:102250004FF480711248FFF751FF00F073F84FF40C
:1022600000710F48FFF73FFF08B9002010BD4FF481
:1022700000710B48FFF740FF00F064F84FF4007165
:102280000748FFF730FF08B10020EFE74FF4007177
:102290000348FFF731FF00F055F80120E6E70000A2
:1022A000000C014010B54FF480710D48FFF724FF7A
:1022B00000F048F84FF400710948FFF71DFF00F0E7
:1022C00041F84FF480710648FFF718FF00F03AF824
:1022D0004FF400710248FFF711FF00F033F810BD12
:1022E000000C014010B54FF480711548FFF704FF52
:1022F00000F028F84FF400711148FFF7FFFE00F0DE
:1023000021F84FF480710E48FFF7F8FE00F01AF83C
:102310004FF400710A48FFF7E6FE40B14FF48071B8
:102320000748FFF7E9FE00F00DF8002010BD4FF45C
:1023300080710348FFF7E0FE00F004F80120F5E7A4
:10234000000C0140032001E0411E88B20028FBD1AF
:1023500070472DE9F04180460E4615461F46002481
:10236000FFF770FF10B90020BDE8F0814046FFF78D
:1023700037FFFFF7B7FF18B9FFF794FF0020F3E727
:10238000F1B20812FFF72CFFFFF7ACFFF0B2FFF736
:1023900027FFFFF7A7FFFFF755FF08F10101C8B2BC
:1023A000FFF71EFFFFF79EFF00240FE0681EA0420C
:1023B00005D0FFF7E7FE3855FFF7A4FE04E0FFF76E
:1023C000E1FE3855FFF7BEFE601CC4B2AC42EDDB47
:1023D000FFF768FF2846C7E72DE9F04180460C4625
:1023E00015461F460026FFF72DFF4046FFF7F8FE73
:1023F000FFF778FF2012FFF7F3FEFFF773FFE0B25D
:10240000FFF7EEFEFFF76EFF00BF06E0B85DFFF7D7
:10241000E7FEFFF767FF701CC6B2AE42F6DBFFF7C0
:1024200041FFE8B2BDE8F08100BFFEE77047000061
:1024300070B5002100230F22C47804B3154C246822
:1024400004F4E064C4F5E064210AC1F10403CA4065
:10245000447804FA03F184781440214309010E4CB6
:102460000678A155047804F01F050124AC400578D6
:102470006D11AD0005F1E025C5F8004109E00478D3
:1024800004F01F050124AC40044D0678761145F890
:10249000264070BD0CED00E000E400E080E100E0CB
:1024A00002490143024A1160704700000000FA052A
:1024B0000CED00E07047000029B1064A5269024362
:1024C000044B5A6104E0034A52698243014B5A614A
:1024D000704700000010024029B1064A1269024309
:1024E000044B1A6104E0034A12698243014B1A61EA
:1024F000704700000010024029B1064A9269024369
:10250000044B9A6104E0034A92698243014B9A6149
:10251000704700000010024029B1064AD268024309
:10252000044BDA6004E0034AD2688243014BDA606C
:10253000704700000010024030B500210022002446
:1025400000232D4D6D6805F00C0121B1042905D043
:10255000082923D105E0294D056022E0274D0560BB
:102560001FE0254D6D6805F47012234D6D6805F46C
:102570008034022505EB92421CB9214D554305607C
:102580000BE01D4D6D6805F400351DB11C4D554324
:10259000056002E0194D5543056002E0174D0560E6
:1025A00000BF00BF144D6D6805F0F0010909154D1D
:1025B0006B5C0568DD4045600F4D6D6805F4E061BA
:1025C000090A104D6B5C4568DD4085600A4D6D68F9
:1025D00005F46051C90A0B4D6B5C4568DD40C56070
:1025E000054D6D6805F44041890B074D6B5CC5686E
:1025F000B5FBF3F5056130BD0010024000127A0012
:1026000000093D001400002024000020704710B590
:1026100000F002F810BD00000CB500200190009001
:102620003348006840F480303149086000BF3048CA
:10263000006800F4003000900198401C0190009860
:1026400018B90198B0F5A06FF1D12948006800F4DD
:10265000003010B10120009001E0002000900098AF
:10266000012843D12348006840F010002149086048
:102670000846006820F0030008600846006840F043
:10268000020008601A4840681949486008464068D6
:1026900048600846406840F48060486008464068EA
:1026A00020F47C1048600846406840F4E810486018
:1026B0000846006840F08070086000BF0C48006861
:1026C00000F000700028F9D00948406820F00300AD
:1026D000074948600846406840F00200486000BF73
:1026E0000348406800F00C000828F9D10CBD000038
:1026F0000010024000200240042808D14FF0E021E1
:10270000096941F004014FF0E022116107E04FF048
:10271000E021096921F004014FF0E02211617047C6
:102720007047000010B51348006840F001001149DF
:10273000086008464068104908400E49486008464D
:1027400000680E4908400B4908600846006820F4FC
:10275000802008600846406820F4FE0048604FF47E
:102760001F008860FFF753FF4FF0006004490860C6
:1027700010BD0000001002400000FFF8FFFFF6FE51
:1027800008ED00E070B5002440F22441154800F047
:102790009BF828B313480088C4B21248001D008873
:1027A000C4B200BF00211048FFF7D6FA4FF47020E2
:1027B000FFF7C4FA0C48FFF781FB05460B4800F011
:1027C0009FF9C5F1400081010848FDF7A3FD4021B4
:1027D0000548FFF795FB01210348FFF7BDFA00BF4D
:1027E00070BD000000380140580002403000002059
:1027F00001F40072B2F5007F00D100BFCA4302802D
:10280000704721B1828942F40052828104E08289BA
:102810004DF6FF731A40828170471AB1838A0B43C9
:10282000838202E0838A8B438382704710B504461B
:102830002048844209D101218803FFF76DFE002161
:102840004FF48040FFF768FE32E01B48844209D114
:1028500001214804FFF740FE00214FF40030FFF74C
:102860003BFE25E01548844209D101218804FFF789
:1028700033FE00214FF48020FFF72EFE18E01048B1
:10288000844209D10121C804FFF726FE00214FF43C
:102890000020FFF721FE0BE00A48844208D1012105
:1028A0000805FFF719FE00214FF48010FFF714FE12
:1028B00010BD0000003801400044004000480040C6
:1028C000004C00400050004070B502460024002338
:1028D0000025002040F66A16B14200D100BFC1F3C6
:1028E000421501F01F03012606FA03F3012D02D160
:1028F0009689334006E0022D02D1168A334001E06A
:10290000968A33400C12012606FA04F416883440E5
:1029100013B10CB1012000E0002070BDF0B50346FA
:10292000002400260025002040F66A17B94200D195
:1029300000BF1846C1F3421401F01F06012707FA31
:1029400006F5012C01D10C3004E0022C01D110302D
:1029500000E014301AB107682F43076002E00768EF
:10296000AF430760F0BD00002DE9F04786B0054693
:102970000E460024A24600BFA1460027B08900B140
:1029800000BF2F462C8A4CF6FF700440F0880443A9
:102990002C82AC894EF6F3100440B088318908438C
:1029A000718908430443AC81AC8A4FF6FF40044070
:1029B000B0890443AC8201A8FFF7BEFD1F488742DF
:1029C00002D1DDF810A001E0DDF80CA0A88900F428
:1029D000004040B10AEBCA0000EB0A103168490020
:1029E000B0FBF1F807E00AEBCA0000EB0A1031680F
:1029F0008900B0FBF1F86420B8FBF0F00401200975
:102A0000642101FB1089A88900F4004040B1322004
:102A100000EBC900B0FBF1F000F00700044308E050
:102A2000322000EB09106421B0FBF1F000F00F0040
:102A300004432C8106B0BDE8F08700000038014057
:102A400000BFFEE7490050EAC12018BF04204A0D2C
:102A500018BF40F0010040F2FF72B2EB515F08BFB7
:102A600040F00200012808BF0520704730380A28CE
:102A700001D201207047002070472DE9F04706463B
:102A800000F079F904464FF00008002500211E20CF
:102A900000F040FC0021202000F03CFC002122201E
:102AA00000F038FC00F075FB00BF13E006E000F01A
:102AB0005BF807464FF4FA7000F09EF8002FF6D04E
:102AC00000F022F9814600F064F805EB090005B238
:102AD00008F10108B8F1320FE8DB00F060FB3220AA
:102AE00095FBF0F005B2701B04B24FF6FF7000EAE0
:102AF00084011E2000F00EFC60B2BDE8F0870000EB
:102B00002DE9F0410446002500260027A8460CB90F
:102B1000BDE8F0810FA12046FDF7CBFB05460FA1D4
:102B20002046FDF7C6FB0646ED1D09362846FDF793
:102B3000B3FB07B23046FDF7AFFB0FFA80F838461B
:102B400000F062FA1FFA88F0FFF797FF002400BF39
:102B5000DEE700006F66667365743A00646973743B
:102B6000616E63653A00000038B500F0F0F8044685
:102B70006946312000F0E2F9012000F03DF89DF8AF
:102B8000000000F00100A04201D1012038BD00206A
:102B9000FCE710B50121862000F0B4FB10BD10B594
:102BA000012144F20400FFF7A7FC01210846FFF7CA
:102BB00083FC10BD10B56FF00400FFF79DFD0A48BF
:102BC00000680A49B0FBF1F009490870084600782E
:102BD00000EB4001C1EBC0104FF6FF7101EAC000ED
:102BE0000449088010BD00000000002000127A0097
:102BF000280000202A0000200146114A12884A437A
:102C00004FF0E0235A6100229A611A46126942F09D
:102C100001021A6100BF4FF0E022106900F00102CA
:102C20001AB100F48032002AF5D04FF0E022126988
:102C300022F001024FF0E0231A6100229A617047EE
:102C40002A00002000B58BB02248FFF791F8102031
:102C500002904020039000200490802005900020E6
:102C60000690079008904FF48050099000200A9039
:102C7000194801901948009069461648FFF722F953
:102C800000211448FFF768F812481430FFF770F875
:102C900000200290402003900020049080200590A6
:102CA0000020069007902020089000020990002044
:102CB0000A900B4801900948009069460548143075
:102CC000FFF700F9012103481430FFF745F80BB076
:102CD00000BD0000440002407000002004380140A4
:102CE0003000002010B5044600210648FFF734F8F4
:102CF00021460448FFF704F901210248FFF72CF8A8
:102D000010BD00004400024008B56946962000F05E
:102D10001EF9FFF73EFFBDF80000B0F57A6F02DD47
:102D20004FF6FF700090BDF8000008BD38B5694649
:102D30004B2000F003F99DF80000142800D1012475
:102D40009DF800000A2800D10224E0B238BD38B551
:102D50006946302000F0F2F89DF8000000F0100005
:102D600000909DF80000001108B9012000E000204B
:102D70000446204638BD38B569461E2000F0E7F805
:102D8000BDF8000000F4805020B1BDF8000040F410
:102D900060400090BDF8000004B22146E01704EB4B
:102DA0009070801038BD38B569465E2000F0CFF8CD
:102DB000BDF80000B0F5E67F2CD00FDCAD2826D0A2
:102DC00006DC1E281DD051281AD060282BD11BE00C
:102DD000D62818D0B0F5D77F25D117E040F2E132E0
:102DE000811A904218D005DCA0F2D920A8B1082899
:102DF00019D10EE0AE2913D0B1F5D87F13D10EE072
:102E000000BF142411E000BF21240EE000BF3224D3
:102E10000BE000BF642408E000BFC82405E000BF49
:102E20004FF4FA7401E0142400BF00BF204638BDFF
:102E300008B50E48FFF768F818208DF803004FF426
:102E40000070ADF8000003208DF8020069460748C5
:102E5000FFF7BEF804208DF803000002ADF8000073
:102E600069460248FFF7B4F808BD000000080140B9
:102E700070B504460D461646F2B22B46214602486E
:102E80000078FFF766FA70BD2C00002070B504468C
:102E90000D4616462B463246214602480078FFF77B
:102EA0009BFA70BD2C00002008B501210820FFF717
:102EB00023FB14208DF803004FF48070ADF8000060
:102EC00003208DF8020069460C48FFF781F81420B2
:102ED0008DF803004FF40070ADF800006946074814
:102EE000FFF776F84FF480710448FFF707F94FF4C5
:102EF00000710248FFF702F908BD0000000C014014
:102F000000BF4FF4A060FFF7CBFAFFF753FE00F0CD
:102F100065F900F099F900F0CBF900BFFEE708B5BC
:102F200025208DF8000001208DF803008DF80100A8
:102F30008DF802006846FFF77BFA08BD70B50446BD
:102F40000D46012229462046FFF792FF70BD38B595
:102F500005460C4600200090022269462846FFF7ED
:102F600087FF9DF801009DF8001000EB01202080F4
:102F700038BD70B50446FFF716FF0546012C02D098
:102F8000022C36D11AE014214B2000F0BBF90721A6
:102F9000602000F0B7F90521632000F0B3F9382173
:102FA000692000F0AFF940F20571782000F0B2F925
:102FB00040F206617A2000F0ADF91BE00A214B20B7
:102FC00000F0A0F90F21602000F09CF90D21632092
:102FD00000F098F9B821692000F094F940F60D71DD
:102FE000782000F097F940F60E617A2000F092F90F
:102FF00000E000BF00BF284600F017F870BD10B514
:103000000120FFF7B6FF10BD70B50446A00005B261
:10301000A9B21E2000F07EF90021202000F07AF9EC
:103020000021222000F076F970BD70B50446FFF74C
:103030007DFE054605B970BD012D5AD1322C2AD02E
:1030400006DC0F2C0CD0142C13D0212C4FD119E0FE
:10305000642C2BD0C82C34D0B4F5FA7F47D13BE098
:103060001D215E2000F056F92721612000F052F961
:103070003EE051215E2000F04DF96E21612000F00C
:1030800049F935E0D6215E2000F044F96E21612037
:1030900000F040F92CE04FF4D7715E2000F03AF9CF
:1030A0004FF4F471612000F035F921E040F2E121A4
:1030B0005E2000F02FF94FF46271612000F02AF9D0
:1030C00016E040F2E1315E2000F024F940F2964132
:1030D000612000F01FF90BE040F291515E2000F0FA
:1030E00019F940F2C151612000F014F900E000BF6D
:1030F0004DE0642C28D006DC142C0AD0212C11D0F1
:10310000322C42D117E0C82C29D0B4F5FA7F3CD13B
:1031100030E01E215E2000F0FDF82221612000F049
:10312000F9F833E060215E2000F0F4F86E216120B0
:1031300000F0F0F82AE0AD215E2000F0EBF8C621A7
:10314000612000F0E7F821E04FF4E6715E2000F026
:10315000E1F84FF4F571612000F0DCF816E040F280
:10316000D9215E2000F0D6F84FF43E71612000F0C6
:10317000D1F80BE040F28F415E2000F0CBF840F236
:10318000A441612000F0C6F800E000BF00BF00BF0E
:1031900051E710B54021872000F0B4F810BD10B5FC
:1031A0000021872000F0AEF810BD00000FB438B544
:1031B00005A800900848009A0499FDF75BF80020E4
:1031C00000900548FDF787F884B22046FFF78AFD96
:1031D00038BC5DF814FB0000700000201FB5FFF73D
:1031E000DEFCFFF725FEFFF72DFDFFF798FE1548E3
:1031F000FFF71CFB4FF4E13000900020ADF80C000D
:103200000C20ADF80A000020ADF80800ADF806006B
:10321000ADF8040069460B48FFF7A6FB30210948CA
:10322000FFF7E6FA0122C0210648FFF7F6FA01226D
:1032300040F224410348FFF771FB01210148FFF7E9
:10324000E0FA1FBD0038014070B500240025FFF7EB
:103250002BFE2D2408E0A4F12D00144A115C204619
:1032600000F050F8601CC4B2872CF4DDFFF791FF2A
:1032700005E0FFF779FC05466420FFF7BDFC002D53
:10328000F7D00025FFF785FCFFF789FF092108200B
:1032900000F038F800210B2000F034F80120FFF78F
:1032A00068FE6420FFF7C1FE012070BD9433000862
:1032B0000024FFF7A4FE0F20FFF7B7FE11E0FFF791
:1032C00068FFFFF721FD0446FFF769FFFFF753FD95
:1032D00005462A46214603A0FFF768FF6420FFF752
:1032E0008BFCECE764697374616E63653A25646D09
:1032F0006D20206765746F66667365743A25640D8A
:103300000A00000013B50446012201A92046FFF778
:10331000BDFD1CBD38B505460C4620128DF80000D9
:10332000E0B28DF80100022269462846FFF7AEFDA3
:1033300038BD000010B500290AD00878002807D051
:1033400005487844FEF7E8F8002801D0002010BDB9
:103350000248784410BD0000CA010000C20100000C
:1033600010B500290AD00878002807D0054878440D
:10337000FEF7D2F8002801D0002010BD02487844A2
:1033800010BD0000AE020000A6020000FDF781BCE7
:10339000FDF7B6BD000000010200020800081001A0
:1033A0000100000000FF000F0000000000200B00E3
:1033B00000020A2100000500000000C8000038FFDC
:1033C000010008000001DB0F01F10D016800800819
:1033D000B8000000000F8900000000000000010F8D
:1033E0000D0E0E000002C7FF9B0000000100000050
:1033F0000000000000000000303132333435363731
:103400003839414243444546403058003031323328
:103410003435363738396162636465664030780028
:10342000040000080000000000000002000100008D
:103430001030313233343536373839616263646580
:10344000667870003031323334353637383941429E
:10345000434445465850000002400000000000A0D0
:103460000000000005400000000000C8000000004F
:103470000C4000000000409C0000000019400000CB
:103480000020BCBE0000000034400000BFC91B8EFD
:1034900000000004B5400000504BCFD06607E2CFDB
:1034A000010000006C4100003E8251AADFEEA7340B
:1034B00001000000D9420000DCB5A0E23A301F97BD
:1034C000FFFFFFFFB4450000FD25A0C8E9A3C14FE1
:1034D000FFFFFFFFFF3F0000000000800000000032
:1034E000FF3F0000000000800000000038360008A8
:1034F00000000020300000002801000868360008A5
:1035000030000020E0060000440100081001000027
:1035100043000000F8FFFFFF0040404040404040B3
:103520004040414141414140404040404040404096
:10353000404040404040404040050202020202023A
:103540000202020202020202022020202020202089
:10355000202020020202020202029090909090909D
:10356000101010101010101010101010101010105B
:1035700010101010020202020202888888888888CF
:1035800008080808080808080808080808080808BB
:1035900008080808020202024000000000000000C3
:1035A000000000000000000000000000000000001B
:1035B000000000000000000000000000000000000B
:1035C00000000000000000000000000000000000FB
:1035D00000000000000000000000000000000000EB
:1035E00000000000000000000000000000000000DB
:1035F00000000000000000000000000000000000CB
:1036000000000000000000000000000000000000BA
:103610000000000000000000000000001C0000008E
:1036200043000000F8FFFFFF0C0000000E00000048
:103630000F0000002E00000000A24A04000000005D
:103640000000000001020304060708090000000052
:103650000102030401020304060708090204060824
:08366000000000005200000010
:04000005080000ED02
:00000001FF
